{
    "_format": "hh-sol-artifact-1",
    "contractName": "USDTTransfer",
    "sourceName": "contracts/USDTTransfer.sol",
    "abi": [
        {
            "inputs": [],
            "stateMutability": "nonpayable",
            "type": "constructor"
        },
        {
            "inputs": [],
            "name": "InvalidShortString",
            "type": "error"
        },
        {
            "inputs": [
                {
                    "internalType": "string",
                    "name": "str",
                    "type": "string"
                }
            ],
            "name": "StringTooLong",
            "type": "error"
        },
        {
            "anonymous": false,
            "inputs": [
                {
                    "indexed": true,
                    "internalType": "address",
                    "name": "owner",
                    "type": "address"
                },
                {
                    "indexed": true,
                    "internalType": "address",
                    "name": "spender",
                    "type": "address"
                },
                {
                    "indexed": false,
                    "internalType": "uint256",
                    "name": "value",
                    "type": "uint256"
                }
            ],
            "name": "Approval",
            "type": "event"
        },
        {
            "anonymous": false,
            "inputs": [],
            "name": "EIP712DomainChanged",
            "type": "event"
        },
        {
            "anonymous": false,
            "inputs": [
                {
                    "indexed": true,
                    "internalType": "address",
                    "name": "previousOwner",
                    "type": "address"
                },
                {
                    "indexed": true,
                    "internalType": "address",
                    "name": "newOwner",
                    "type": "address"
                }
            ],
            "name": "OwnershipTransferred",
            "type": "event"
        },
        {
            "anonymous": false,
            "inputs": [
                {
                    "indexed": true,
                    "internalType": "address",
                    "name": "from",
                    "type": "address"
                },
                {
                    "indexed": true,
                    "internalType": "address",
                    "name": "to",
                    "type": "address"
                },
                {
                    "indexed": false,
                    "internalType": "uint256",
                    "name": "value",
                    "type": "uint256"
                }
            ],
            "name": "Transfer",
            "type": "event"
        },
        {
            "inputs": [],
            "name": "DOMAIN_SEPARATOR",
            "outputs": [
                {
                    "internalType": "bytes32",
                    "name": "",
                    "type": "bytes32"
                }
            ],
            "stateMutability": "view",
            "type": "function"
        },
        {
            "inputs": [
                {
                    "internalType": "address",
                    "name": "owner",
                    "type": "address"
                },
                {
                    "internalType": "address",
                    "name": "spender",
                    "type": "address"
                }
            ],
            "name": "allowance",
            "outputs": [
                {
                    "internalType": "uint256",
                    "name": "",
                    "type": "uint256"
                }
            ],
            "stateMutability": "view",
            "type": "function"
        },
        {
            "inputs": [
                {
                    "internalType": "address",
                    "name": "spender",
                    "type": "address"
                },
                {
                    "internalType": "uint256",
                    "name": "amount",
                    "type": "uint256"
                }
            ],
            "name": "approve",
            "outputs": [
                {
                    "internalType": "bool",
                    "name": "",
                    "type": "bool"
                }
            ],
            "stateMutability": "nonpayable",
            "type": "function"
        },
        {
            "inputs": [
                {
                    "internalType": "address",
                    "name": "account",
                    "type": "address"
                }
            ],
            "name": "balanceOf",
            "outputs": [
                {
                    "internalType": "uint256",
                    "name": "",
                    "type": "uint256"
                }
            ],
            "stateMutability": "view",
            "type": "function"
        },
        {
            "inputs": [
                {
                    "internalType": "uint256",
                    "name": "amount",
                    "type": "uint256"
                }
            ],
            "name": "burn",
            "outputs": [],
            "stateMutability": "nonpayable",
            "type": "function"
        },
        {
            "inputs": [
                {
                    "internalType": "address",
                    "name": "account",
                    "type": "address"
                },
                {
                    "internalType": "uint256",
                    "name": "amount",
                    "type": "uint256"
                }
            ],
            "name": "burnFrom",
            "outputs": [],
            "stateMutability": "nonpayable",
            "type": "function"
        },
        {
            "inputs": [],
            "name": "decimals",
            "outputs": [
                {
                    "internalType": "uint8",
                    "name": "",
                    "type": "uint8"
                }
            ],
            "stateMutability": "view",
            "type": "function"
        },
        {
            "inputs": [
                {
                    "internalType": "address",
                    "name": "spender",
                    "type": "address"
                },
                {
                    "internalType": "uint256",
                    "name": "subtractedValue",
                    "type": "uint256"
                }
            ],
            "name": "decreaseAllowance",
            "outputs": [
                {
                    "internalType": "bool",
                    "name": "",
                    "type": "bool"
                }
            ],
            "stateMutability": "nonpayable",
            "type": "function"
        },
        {
            "inputs": [],
            "name": "eip712Domain",
            "outputs": [
                {
                    "internalType": "bytes1",
                    "name": "fields",
                    "type": "bytes1"
                },
                {
                    "internalType": "string",
                    "name": "name",
                    "type": "string"
                },
                {
                    "internalType": "string",
                    "name": "version",
                    "type": "string"
                },
                {
                    "internalType": "uint256",
                    "name": "chainId",
                    "type": "uint256"
                },
                {
                    "internalType": "address",
                    "name": "verifyingContract",
                    "type": "address"
                },
                {
                    "internalType": "bytes32",
                    "name": "salt",
                    "type": "bytes32"
                },
                {
                    "internalType": "uint256[]",
                    "name": "extensions",
                    "type": "uint256[]"
                }
            ],
            "stateMutability": "view",
            "type": "function"
        },
        {
            "inputs": [
                {
                    "internalType": "address",
                    "name": "spender",
                    "type": "address"
                },
                {
                    "internalType": "uint256",
                    "name": "addedValue",
                    "type": "uint256"
                }
            ],
            "name": "increaseAllowance",
            "outputs": [
                {
                    "internalType": "bool",
                    "name": "",
                    "type": "bool"
                }
            ],
            "stateMutability": "nonpayable",
            "type": "function"
        },
        {
            "inputs": [
                {
                    "internalType": "address",
                    "name": "to",
                    "type": "address"
                },
                {
                    "internalType": "uint256",
                    "name": "amount",
                    "type": "uint256"
                }
            ],
            "name": "mint",
            "outputs": [],
            "stateMutability": "nonpayable",
            "type": "function"
        },
        {
            "inputs": [],
            "name": "name",
            "outputs": [
                {
                    "internalType": "string",
                    "name": "",
                    "type": "string"
                }
            ],
            "stateMutability": "view",
            "type": "function"
        },
        {
            "inputs": [
                {
                    "internalType": "address",
                    "name": "owner",
                    "type": "address"
                }
            ],
            "name": "nonces",
            "outputs": [
                {
                    "internalType": "uint256",
                    "name": "",
                    "type": "uint256"
                }
            ],
            "stateMutability": "view",
            "type": "function"
        },
        {
            "inputs": [],
            "name": "owner",
            "outputs": [
                {
                    "internalType": "address",
                    "name": "",
                    "type": "address"
                }
            ],
            "stateMutability": "view",
            "type": "function"
        },
        {
            "inputs": [
                {
                    "internalType": "address",
                    "name": "owner",
                    "type": "address"
                },
                {
                    "internalType": "address",
                    "name": "spender",
                    "type": "address"
                },
                {
                    "internalType": "uint256",
                    "name": "value",
                    "type": "uint256"
                },
                {
                    "internalType": "uint256",
                    "name": "deadline",
                    "type": "uint256"
                },
                {
                    "internalType": "uint8",
                    "name": "v",
                    "type": "uint8"
                },
                {
                    "internalType": "bytes32",
                    "name": "r",
                    "type": "bytes32"
                },
                {
                    "internalType": "bytes32",
                    "name": "s",
                    "type": "bytes32"
                }
            ],
            "name": "permit",
            "outputs": [],
            "stateMutability": "nonpayable",
            "type": "function"
        },
        {
            "inputs": [],
            "name": "renounceOwnership",
            "outputs": [],
            "stateMutability": "nonpayable",
            "type": "function"
        },
        {
            "inputs": [],
            "name": "symbol",
            "outputs": [
                {
                    "internalType": "string",
                    "name": "",
                    "type": "string"
                }
            ],
            "stateMutability": "view",
            "type": "function"
        },
        {
            "inputs": [],
            "name": "totalSupply",
            "outputs": [
                {
                    "internalType": "uint256",
                    "name": "",
                    "type": "uint256"
                }
            ],
            "stateMutability": "view",
            "type": "function"
        },
        {
            "inputs": [
                {
                    "internalType": "address",
                    "name": "to",
                    "type": "address"
                },
                {
                    "internalType": "uint256",
                    "name": "amount",
                    "type": "uint256"
                }
            ],
            "name": "transfer",
            "outputs": [
                {
                    "internalType": "bool",
                    "name": "",
                    "type": "bool"
                }
            ],
            "stateMutability": "nonpayable",
            "type": "function"
        },
        {
            "inputs": [
                {
                    "internalType": "address",
                    "name": "from",
                    "type": "address"
                },
                {
                    "internalType": "address",
                    "name": "to",
                    "type": "address"
                },
                {
                    "internalType": "uint256",
                    "name": "amount",
                    "type": "uint256"
                }
            ],
            "name": "transferFrom",
            "outputs": [
                {
                    "internalType": "bool",
                    "name": "",
                    "type": "bool"
                }
            ],
            "stateMutability": "nonpayable",
            "type": "function"
        },
        {
            "inputs": [
                {
                    "internalType": "address",
                    "name": "newOwner",
                    "type": "address"
                }
            ],
            "name": "transferOwnership",
            "outputs": [],
            "stateMutability": "nonpayable",
            "type": "function"
        }
    ],
    "bytecode": "0x6101606040523480156200001257600080fd5b5060405180604001604052806008815260200167546f6b656e4e657760c01b81525080604051806040016040528060018152602001603160f81b81525060405180604001604052806008815260200167546f6b656e4e657760c01b81525060405180604001604052806004815260200163544b4e5760e01b81525081600390816200009e919062000411565b506004620000ad828262000411565b505050620000ca620000c4620001b560201b60201c565b620001b9565b620000e56006836200020b60201b6200077e1790919060201c565b61012052620001028160076200020b602090811b6200077e17901c565b61014052815160208084019190912060e052815190820120610100524660a0526200019060e05161010051604080517f8b73c3c69bb8fe3d512ecc4cf759cc79239f7b179b0ffacaa9a75d522b39400f60208201529081019290925260608201524660808201523060a082015260009060c00160405160208183030381529060405280519060200120905090565b60805250503060c05250620001af3368056bc75e2d631000006200025b565b62000574565b3390565b600580546001600160a01b038381166001600160a01b0319831681179093556040519116919082907f8be0079c531659141344cd1fd0a4f28419497f9722a3daafe3b4186f6b6457e090600090a35050565b60006020835110156200022b57620002238362000322565b905062000255565b8262000242836200036560201b620007af1760201c565b906200024f908262000411565b5060ff90505b92915050565b6001600160a01b038216620002b75760405162461bcd60e51b815260206004820152601f60248201527f45524332303a206d696e7420746f20746865207a65726f20616464726573730060448201526064015b60405180910390fd5b8060026000828254620002cb9190620004dd565b90915550506001600160a01b038216600081815260208181526040808320805486019055518481527fddf252ad1be2c89b69c2b068fc378daa952ba7f163c4a11628f55a4df523b3ef910160405180910390a35050565b600080829050601f8151111562000350578260405163305a27a960e01b8152600401620002ae9190620004ff565b80516200035d826200054f565b179392505050565b90565b505050565b634e487b7160e01b600052604160045260246000fd5b600181811c908216806200039857607f821691505b602082108103620003b957634e487b7160e01b600052602260045260246000fd5b50919050565b601f8211156200036857600081815260208120601f850160051c81016020861015620003e85750805b601f850160051c820191505b818110156200040957828155600101620003f4565b505050505050565b81516001600160401b038111156200042d576200042d6200036d565b62000445816200043e845462000383565b84620003bf565b602080601f8311600181146200047d5760008415620004645750858301515b600019600386901b1c1916600185901b17855562000409565b600085815260208120601f198616915b82811015620004ae578886015182559484019460019091019084016200048d565b5085821015620004cd5787850151600019600388901b60f8161c191681555b5050505050600190811b01905550565b808201808211156200025557634e487b7160e01b600052601160045260246000fd5b600060208083528351808285015260005b818110156200052e5785810183015185820160400152820162000510565b506000604082860101526040601f19601f8301168501019250505092915050565b80516020808301519190811015620003b95760001960209190910360031b1b16919050565b60805160a05160c05160e0516101005161012051610140516116c9620005cf600039600061048c0152600061046101526000610bcf01526000610ba701526000610b0201526000610b2c01526000610b5601526116c96000f3fe608060405234801561001057600080fd5b50600436106101375760003560e01c8063715018a6116100b857806395d89b411161007c57806395d89b4114610281578063a457c2d714610289578063a9059cbb1461029c578063d505accf146102af578063dd62ed3e146102c2578063f2fde38b146102d557600080fd5b8063715018a61461021d57806379cc6790146102255780637ecebe001461023857806384b0196e1461024b5780638da5cb5b1461026657600080fd5b80633644e515116100ff5780633644e515146101b157806339509351146101b957806340c10f19146101cc57806342966c68146101e157806370a08231146101f457600080fd5b806306fdde031461013c578063095ea7b31461015a57806318160ddd1461017d57806323b872dd1461018f578063313ce567146101a2575b600080fd5b6101446102e8565b60405161015191906112d4565b60405180910390f35b61016d61016836600461130a565b61037a565b6040519015158152602001610151565b6002545b604051908152602001610151565b61016d61019d366004611334565b610394565b60405160128152602001610151565b6101816103b8565b61016d6101c736600461130a565b6103c7565b6101df6101da36600461130a565b6103e9565b005b6101df6101ef366004611370565b6103ff565b610181610202366004611389565b6001600160a01b031660009081526020819052604090205490565b6101df61040c565b6101df61023336600461130a565b610420565b610181610246366004611389565b610435565b610253610453565b60405161015197969594939291906113a4565b6005546040516001600160a01b039091168152602001610151565b6101446104dc565b61016d61029736600461130a565b6104eb565b61016d6102aa36600461130a565b61056b565b6101df6102bd36600461143a565b610579565b6101816102d03660046114ad565b6106dd565b6101df6102e3366004611389565b610708565b6060600380546102f7906114e0565b80601f0160208091040260200160405190810160405280929190818152602001828054610323906114e0565b80156103705780601f1061034557610100808354040283529160200191610370565b820191906000526020600020905b81548152906001019060200180831161035357829003601f168201915b5050505050905090565b6000336103888185856107b2565b60019150505b92915050565b6000336103a28582856108d7565b6103ad858585610951565b506001949350505050565b60006103c2610af5565b905090565b6000336103888185856103da83836106dd565b6103e49190611514565b6107b2565b6103f1610c20565b6103fb8282610c7a565b5050565b6104093382610d39565b50565b610414610c20565b61041e6000610e68565b565b61042b8233836108d7565b6103fb8282610d39565b6001600160a01b03811660009081526008602052604081205461038e565b6000606080828080836104877f00000000000000000000000000000000000000000000000000000000000000006006610eba565b6104b27f00000000000000000000000000000000000000000000000000000000000000006007610eba565b60408051600080825260208201909252600f60f81b9b939a50919850469750309650945092509050565b6060600480546102f7906114e0565b600033816104f982866106dd565b90508381101561055e5760405162461bcd60e51b815260206004820152602560248201527f45524332303a2064656372656173656420616c6c6f77616e63652062656c6f77604482015264207a65726f60d81b60648201526084015b60405180910390fd5b6103ad82868684036107b2565b600033610388818585610951565b834211156105c95760405162461bcd60e51b815260206004820152601d60248201527f45524332305065726d69743a206578706972656420646561646c696e650000006044820152606401610555565b60007f6e71edae12b1b97f4d1f60370fef10105fa2faae0126114a169c64845d6126c98888886105f88c610f5e565b6040805160208101969096526001600160a01b0394851690860152929091166060840152608083015260a082015260c0810186905260e001604051602081830303815290604052805190602001209050600061065382610f86565b9050600061066382878787610fb3565b9050896001600160a01b0316816001600160a01b0316146106c65760405162461bcd60e51b815260206004820152601e60248201527f45524332305065726d69743a20696e76616c6964207369676e617475726500006044820152606401610555565b6106d18a8a8a6107b2565b50505050505050505050565b6001600160a01b03918216600090815260016020908152604080832093909416825291909152205490565b610710610c20565b6001600160a01b0381166107755760405162461bcd60e51b815260206004820152602660248201527f4f776e61626c653a206e6577206f776e657220697320746865207a65726f206160448201526564647265737360d01b6064820152608401610555565b61040981610e68565b600060208351101561079a5761079383610fdb565b905061038e565b816107a58482611599565b5060ff905061038e565b90565b6001600160a01b0383166108145760405162461bcd60e51b8152602060048201526024808201527f45524332303a20617070726f76652066726f6d20746865207a65726f206164646044820152637265737360e01b6064820152608401610555565b6001600160a01b0382166108755760405162461bcd60e51b815260206004820152602260248201527f45524332303a20617070726f766520746f20746865207a65726f206164647265604482015261737360f01b6064820152608401610555565b6001600160a01b0383811660008181526001602090815260408083209487168084529482529182902085905590518481527f8c5be1e5ebec7d5bd14f71427d1e84f3dd0314c0f7b2291e5b200ac8c7c3b92591015b60405180910390a3505050565b60006108e384846106dd565b9050600019811461094b578181101561093e5760405162461bcd60e51b815260206004820152601d60248201527f45524332303a20696e73756666696369656e7420616c6c6f77616e63650000006044820152606401610555565b61094b84848484036107b2565b50505050565b6001600160a01b0383166109b55760405162461bcd60e51b815260206004820152602560248201527f45524332303a207472616e736665722066726f6d20746865207a65726f206164604482015264647265737360d81b6064820152608401610555565b6001600160a01b038216610a175760405162461bcd60e51b815260206004820152602360248201527f45524332303a207472616e7366657220746f20746865207a65726f206164647260448201526265737360e81b6064820152608401610555565b6001600160a01b03831660009081526020819052604090205481811015610a8f5760405162461bcd60e51b815260206004820152602660248201527f45524332303a207472616e7366657220616d6f756e7420657863656564732062604482015265616c616e636560d01b6064820152608401610555565b6001600160a01b03848116600081815260208181526040808320878703905593871680835291849020805487019055925185815290927fddf252ad1be2c89b69c2b068fc378daa952ba7f163c4a11628f55a4df523b3ef910160405180910390a361094b565b6000306001600160a01b037f000000000000000000000000000000000000000000000000000000000000000016148015610b4e57507f000000000000000000000000000000000000000000000000000000000000000046145b15610b7857507f000000000000000000000000000000000000000000000000000000000000000090565b6103c2604080517f8b73c3c69bb8fe3d512ecc4cf759cc79239f7b179b0ffacaa9a75d522b39400f60208201527f0000000000000000000000000000000000000000000000000000000000000000918101919091527f000000000000000000000000000000000000000000000000000000000000000060608201524660808201523060a082015260009060c00160405160208183030381529060405280519060200120905090565b6005546001600160a01b0316331461041e5760405162461bcd60e51b815260206004820181905260248201527f4f776e61626c653a2063616c6c6572206973206e6f7420746865206f776e65726044820152606401610555565b6001600160a01b038216610cd05760405162461bcd60e51b815260206004820152601f60248201527f45524332303a206d696e7420746f20746865207a65726f2061646472657373006044820152606401610555565b8060026000828254610ce29190611514565b90915550506001600160a01b038216600081815260208181526040808320805486019055518481527fddf252ad1be2c89b69c2b068fc378daa952ba7f163c4a11628f55a4df523b3ef910160405180910390a35050565b6001600160a01b038216610d995760405162461bcd60e51b815260206004820152602160248201527f45524332303a206275726e2066726f6d20746865207a65726f206164647265736044820152607360f81b6064820152608401610555565b6001600160a01b03821660009081526020819052604090205481811015610e0d5760405162461bcd60e51b815260206004820152602260248201527f45524332303a206275726e20616d6f756e7420657863656564732062616c616e604482015261636560f01b6064820152608401610555565b6001600160a01b0383166000818152602081815260408083208686039055600280548790039055518581529192917fddf252ad1be2c89b69c2b068fc378daa952ba7f163c4a11628f55a4df523b3ef91016108ca565b505050565b600580546001600160a01b038381166001600160a01b0319831681179093556040519116919082907f8be0079c531659141344cd1fd0a4f28419497f9722a3daafe3b4186f6b6457e090600090a35050565b606060ff8314610ecd5761079383611019565b818054610ed9906114e0565b80601f0160208091040260200160405190810160405280929190818152602001828054610f05906114e0565b8015610f525780601f10610f2757610100808354040283529160200191610f52565b820191906000526020600020905b815481529060010190602001808311610f3557829003601f168201915b5050505050905061038e565b6001600160a01b03811660009081526008602052604090208054600181018255905b50919050565b600061038e610f93610af5565b8360405161190160f01b8152600281019290925260228201526042902090565b6000806000610fc487878787611058565b91509150610fd18161111c565b5095945050505050565b600080829050601f81511115611006578260405163305a27a960e01b815260040161055591906112d4565b805161101182611659565b179392505050565b6060600061102683611266565b604080516020808252818301909252919250600091906020820181803683375050509182525060208101929092525090565b6000807f7fffffffffffffffffffffffffffffff5d576e7357a4501ddfe92f46681b20a083111561108f5750600090506003611113565b6040805160008082526020820180845289905260ff881692820192909252606081018690526080810185905260019060a0016020604051602081039080840390855afa1580156110e3573d6000803e3d6000fd5b5050604051601f1901519150506001600160a01b03811661110c57600060019250925050611113565b9150600090505b94509492505050565b60008160048111156111305761113061167d565b036111385750565b600181600481111561114c5761114c61167d565b036111995760405162461bcd60e51b815260206004820152601860248201527f45434453413a20696e76616c6964207369676e617475726500000000000000006044820152606401610555565b60028160048111156111ad576111ad61167d565b036111fa5760405162461bcd60e51b815260206004820152601f60248201527f45434453413a20696e76616c6964207369676e6174757265206c656e677468006044820152606401610555565b600381600481111561120e5761120e61167d565b036104095760405162461bcd60e51b815260206004820152602260248201527f45434453413a20696e76616c6964207369676e6174757265202773272076616c604482015261756560f01b6064820152608401610555565b600060ff8216601f81111561038e57604051632cd44ac360e21b815260040160405180910390fd5b6000815180845260005b818110156112b457602081850181015186830182015201611298565b506000602082860101526020601f19601f83011685010191505092915050565b6020815260006112e7602083018461128e565b9392505050565b80356001600160a01b038116811461130557600080fd5b919050565b6000806040838503121561131d57600080fd5b611326836112ee565b946020939093013593505050565b60008060006060848603121561134957600080fd5b611352846112ee565b9250611360602085016112ee565b9150604084013590509250925092565b60006020828403121561138257600080fd5b5035919050565b60006020828403121561139b57600080fd5b6112e7826112ee565b60ff60f81b881681526000602060e0818401526113c460e084018a61128e565b83810360408501526113d6818a61128e565b606085018990526001600160a01b038816608086015260a0850187905284810360c0860152855180825283870192509083019060005b818110156114285783518352928401929184019160010161140c565b50909c9b505050505050505050505050565b600080600080600080600060e0888a03121561145557600080fd5b61145e886112ee565b965061146c602089016112ee565b95506040880135945060608801359350608088013560ff8116811461149057600080fd5b9699959850939692959460a0840135945060c09093013592915050565b600080604083850312156114c057600080fd5b6114c9836112ee565b91506114d7602084016112ee565b90509250929050565b600181811c908216806114f457607f821691505b602082108103610f8057634e487b7160e01b600052602260045260246000fd5b8082018082111561038e57634e487b7160e01b600052601160045260246000fd5b634e487b7160e01b600052604160045260246000fd5b601f821115610e6357600081815260208120601f850160051c810160208610156115725750805b601f850160051c820191505b818110156115915782815560010161157e565b505050505050565b815167ffffffffffffffff8111156115b3576115b3611535565b6115c7816115c184546114e0565b8461154b565b602080601f8311600181146115fc57600084156115e45750858301515b600019600386901b1c1916600185901b178555611591565b600085815260208120601f198616915b8281101561162b5788860151825594840194600190910190840161160c565b50858210156116495787850151600019600388901b60f8161c191681555b5050505050600190811b01905550565b80516020808301519190811015610f805760001960209190910360031b1b16919050565b634e487b7160e01b600052602160045260246000fdfea26469706673582212201a05a31899f69c147f244e7e8579baf917edd69ee75400cfda0abc0e67df13b464736f6c63430008120033",
    "linkReferences": {},
    "deployedLinkReferences": {}
}